{
  "contractName": "LandNFT",
  "abi": [
    {
      "inputs": [],
      "stateMutability": "nonpayable",
      "type": "constructor"
    },
    {
      "anonymous": false,
      "inputs": [
        {
          "indexed": true,
          "internalType": "address",
          "name": "owner",
          "type": "address"
        },
        {
          "indexed": true,
          "internalType": "address",
          "name": "approved",
          "type": "address"
        },
        {
          "indexed": true,
          "internalType": "uint256",
          "name": "tokenId",
          "type": "uint256"
        }
      ],
      "name": "Approval",
      "type": "event"
    },
    {
      "anonymous": false,
      "inputs": [
        {
          "indexed": true,
          "internalType": "address",
          "name": "owner",
          "type": "address"
        },
        {
          "indexed": true,
          "internalType": "address",
          "name": "operator",
          "type": "address"
        },
        {
          "indexed": false,
          "internalType": "bool",
          "name": "approved",
          "type": "bool"
        }
      ],
      "name": "ApprovalForAll",
      "type": "event"
    },
    {
      "anonymous": false,
      "inputs": [
        {
          "indexed": true,
          "internalType": "address",
          "name": "previousOwner",
          "type": "address"
        },
        {
          "indexed": true,
          "internalType": "address",
          "name": "newOwner",
          "type": "address"
        }
      ],
      "name": "OwnershipTransferred",
      "type": "event"
    },
    {
      "anonymous": false,
      "inputs": [
        {
          "indexed": true,
          "internalType": "address",
          "name": "from",
          "type": "address"
        },
        {
          "indexed": true,
          "internalType": "address",
          "name": "to",
          "type": "address"
        },
        {
          "indexed": true,
          "internalType": "uint256",
          "name": "tokenId",
          "type": "uint256"
        }
      ],
      "name": "Transfer",
      "type": "event"
    },
    {
      "inputs": [
        {
          "internalType": "address",
          "name": "to",
          "type": "address"
        },
        {
          "internalType": "uint256",
          "name": "tokenId",
          "type": "uint256"
        }
      ],
      "name": "approve",
      "outputs": [],
      "stateMutability": "nonpayable",
      "type": "function"
    },
    {
      "inputs": [
        {
          "internalType": "address",
          "name": "owner",
          "type": "address"
        }
      ],
      "name": "balanceOf",
      "outputs": [
        {
          "internalType": "uint256",
          "name": "",
          "type": "uint256"
        }
      ],
      "stateMutability": "view",
      "type": "function"
    },
    {
      "inputs": [
        {
          "internalType": "uint256",
          "name": "tokenId",
          "type": "uint256"
        }
      ],
      "name": "burn",
      "outputs": [],
      "stateMutability": "nonpayable",
      "type": "function"
    },
    {
      "inputs": [
        {
          "internalType": "uint256",
          "name": "tokenId",
          "type": "uint256"
        }
      ],
      "name": "getApproved",
      "outputs": [
        {
          "internalType": "address",
          "name": "",
          "type": "address"
        }
      ],
      "stateMutability": "view",
      "type": "function"
    },
    {
      "inputs": [
        {
          "internalType": "address",
          "name": "owner",
          "type": "address"
        },
        {
          "internalType": "address",
          "name": "operator",
          "type": "address"
        }
      ],
      "name": "isApprovedForAll",
      "outputs": [
        {
          "internalType": "bool",
          "name": "",
          "type": "bool"
        }
      ],
      "stateMutability": "view",
      "type": "function"
    },
    {
      "inputs": [],
      "name": "name",
      "outputs": [
        {
          "internalType": "string",
          "name": "",
          "type": "string"
        }
      ],
      "stateMutability": "view",
      "type": "function"
    },
    {
      "inputs": [],
      "name": "owner",
      "outputs": [
        {
          "internalType": "address",
          "name": "",
          "type": "address"
        }
      ],
      "stateMutability": "view",
      "type": "function"
    },
    {
      "inputs": [
        {
          "internalType": "uint256",
          "name": "tokenId",
          "type": "uint256"
        }
      ],
      "name": "ownerOf",
      "outputs": [
        {
          "internalType": "address",
          "name": "",
          "type": "address"
        }
      ],
      "stateMutability": "view",
      "type": "function"
    },
    {
      "inputs": [],
      "name": "renounceOwnership",
      "outputs": [],
      "stateMutability": "nonpayable",
      "type": "function"
    },
    {
      "inputs": [
        {
          "internalType": "address",
          "name": "from",
          "type": "address"
        },
        {
          "internalType": "address",
          "name": "to",
          "type": "address"
        },
        {
          "internalType": "uint256",
          "name": "tokenId",
          "type": "uint256"
        }
      ],
      "name": "safeTransferFrom",
      "outputs": [],
      "stateMutability": "nonpayable",
      "type": "function"
    },
    {
      "inputs": [
        {
          "internalType": "address",
          "name": "from",
          "type": "address"
        },
        {
          "internalType": "address",
          "name": "to",
          "type": "address"
        },
        {
          "internalType": "uint256",
          "name": "tokenId",
          "type": "uint256"
        },
        {
          "internalType": "bytes",
          "name": "data",
          "type": "bytes"
        }
      ],
      "name": "safeTransferFrom",
      "outputs": [],
      "stateMutability": "nonpayable",
      "type": "function"
    },
    {
      "inputs": [
        {
          "internalType": "address",
          "name": "operator",
          "type": "address"
        },
        {
          "internalType": "bool",
          "name": "approved",
          "type": "bool"
        }
      ],
      "name": "setApprovalForAll",
      "outputs": [],
      "stateMutability": "nonpayable",
      "type": "function"
    },
    {
      "inputs": [
        {
          "internalType": "bytes4",
          "name": "interfaceId",
          "type": "bytes4"
        }
      ],
      "name": "supportsInterface",
      "outputs": [
        {
          "internalType": "bool",
          "name": "",
          "type": "bool"
        }
      ],
      "stateMutability": "view",
      "type": "function"
    },
    {
      "inputs": [],
      "name": "symbol",
      "outputs": [
        {
          "internalType": "string",
          "name": "",
          "type": "string"
        }
      ],
      "stateMutability": "view",
      "type": "function"
    },
    {
      "inputs": [
        {
          "internalType": "uint256",
          "name": "tokenId",
          "type": "uint256"
        }
      ],
      "name": "tokenURI",
      "outputs": [
        {
          "internalType": "string",
          "name": "",
          "type": "string"
        }
      ],
      "stateMutability": "view",
      "type": "function"
    },
    {
      "inputs": [
        {
          "internalType": "address",
          "name": "from",
          "type": "address"
        },
        {
          "internalType": "address",
          "name": "to",
          "type": "address"
        },
        {
          "internalType": "uint256",
          "name": "tokenId",
          "type": "uint256"
        }
      ],
      "name": "transferFrom",
      "outputs": [],
      "stateMutability": "nonpayable",
      "type": "function"
    },
    {
      "inputs": [
        {
          "internalType": "address",
          "name": "newOwner",
          "type": "address"
        }
      ],
      "name": "transferOwnership",
      "outputs": [],
      "stateMutability": "nonpayable",
      "type": "function"
    },
    {
      "inputs": [
        {
          "internalType": "address",
          "name": "to",
          "type": "address"
        },
        {
          "internalType": "uint256",
          "name": "_id",
          "type": "uint256"
        }
      ],
      "name": "safeMint",
      "outputs": [],
      "stateMutability": "nonpayable",
      "type": "function"
    },
    {
      "inputs": [
        {
          "internalType": "uint256",
          "name": "_id",
          "type": "uint256"
        }
      ],
      "name": "landDetails",
      "outputs": [
        {
          "components": [
            {
              "internalType": "uint256",
              "name": "id",
              "type": "uint256"
            },
            {
              "internalType": "address",
              "name": "owner",
              "type": "address"
            },
            {
              "internalType": "uint256",
              "name": "mongoId",
              "type": "uint256"
            }
          ],
          "internalType": "struct LandNFT.landNFT",
          "name": "",
          "type": "tuple"
        }
      ],
      "stateMutability": "view",
      "type": "function"
    },
    {
      "inputs": [
        {
          "internalType": "address",
          "name": "_addr",
          "type": "address"
        }
      ],
      "name": "balOf",
      "outputs": [
        {
          "internalType": "uint256",
          "name": "",
          "type": "uint256"
        }
      ],
      "stateMutability": "view",
      "type": "function"
    },
    {
      "inputs": [
        {
          "internalType": "uint256",
          "name": "_tokenId",
          "type": "uint256"
        }
      ],
      "name": "deleteNFT",
      "outputs": [],
      "stateMutability": "nonpayable",
      "type": "function"
    },
    {
      "inputs": [
        {
          "internalType": "address",
          "name": "to",
          "type": "address"
        },
        {
          "internalType": "uint256",
          "name": "_tokenId",
          "type": "uint256"
        }
      ],
      "name": "safeTransfer",
      "outputs": [],
      "stateMutability": "nonpayable",
      "type": "function"
    }
  ],
  "bytecode": "0x60806040523480156200001157600080fd5b506040518060400160405280600781526020017f4c616e644e4654000000000000000000000000000000000000000000000000008152506040518060400160405280600481526020017f4c4e465400000000000000000000000000000000000000000000000000000000815250816000908051906020019062000096929190620001e7565b508060019080519060200190620000af929190620001e7565b505050620000d2620000c66200011960201b60201c565b6200012160201b60201c565b33600760006101000a81548173ffffffffffffffffffffffffffffffffffffffff021916908373ffffffffffffffffffffffffffffffffffffffff160217905550620002fb565b600033905090565b6000600660009054906101000a900473ffffffffffffffffffffffffffffffffffffffff16905081600660006101000a81548173ffffffffffffffffffffffffffffffffffffffff021916908373ffffffffffffffffffffffffffffffffffffffff1602179055508173ffffffffffffffffffffffffffffffffffffffff168173ffffffffffffffffffffffffffffffffffffffff167f8be0079c531659141344cd1fd0a4f28419497f9722a3daafe3b4186f6b6457e060405160405180910390a35050565b828054620001f590620002c6565b90600052602060002090601f01602090048101928262000219576000855562000265565b82601f106200023457805160ff191683800117855562000265565b8280016001018555821562000265579182015b828111156200026457825182559160200191906001019062000247565b5b50905062000274919062000278565b5090565b5b808211156200029357600081600090555060010162000279565b5090565b7f4e487b7100000000000000000000000000000000000000000000000000000000600052602260045260246000fd5b60006002820490506001821680620002df57607f821691505b602082108103620002f557620002f462000297565b5b50919050565b61340e806200030b6000396000f3fe608060405234801561001057600080fd5b50600436106101425760003560e01c8063715018a6116100b8578063a22cb4651161007c578063a22cb46514610373578063b88d4fde1461038f578063c87b56dd146103ab578063e985e9c5146103db578063f2fde38b1461040b578063f687ed571461042757610142565b8063715018a6146102e15780638da5cb5b146102eb57806395d89b4114610309578063a0d5f1aa14610327578063a14481941461035757610142565b806323b872dd1161010a57806323b872dd14610211578063423f6cef1461022d57806342842e0e1461024957806342966c68146102655780636352211e1461028157806370a08231146102b157610142565b806301ffc9a71461014757806306fdde031461017757806307f4d25c14610195578063081812fc146101c5578063095ea7b3146101f5575b600080fd5b610161600480360381019061015c91906122d2565b610443565b60405161016e919061231a565b60405180910390f35b61017f610525565b60405161018c91906123ce565b60405180910390f35b6101af60048036038101906101aa9190612426565b6105b7565b6040516101bc91906124e5565b60405180910390f35b6101df60048036038101906101da9190612426565b61064e565b6040516101ec919061250f565b60405180910390f35b61020f600480360381019061020a9190612556565b610694565b005b61022b60048036038101906102269190612596565b6107ab565b005b61024760048036038101906102429190612556565b61080b565b005b610263600480360381019061025e9190612596565b610995565b005b61027f600480360381019061027a9190612426565b6109b5565b005b61029b60048036038101906102969190612426565b610a11565b6040516102a8919061250f565b60405180910390f35b6102cb60048036038101906102c691906125e9565b610a97565b6040516102d89190612625565b60405180910390f35b6102e9610b4e565b005b6102f3610b62565b604051610300919061250f565b60405180910390f35b610311610b8c565b60405161031e91906123ce565b60405180910390f35b610341600480360381019061033c91906125e9565b610c1e565b60405161034e9190612625565b60405180910390f35b610371600480360381019061036c9190612556565b610c67565b005b61038d6004803603810190610388919061266c565b610e60565b005b6103a960048036038101906103a491906127e1565b610e76565b005b6103c560048036038101906103c09190612426565b610ed8565b6040516103d291906123ce565b60405180910390f35b6103f560048036038101906103f09190612864565b610f40565b604051610402919061231a565b60405180910390f35b610425600480360381019061042091906125e9565b610fd4565b005b610441600480360381019061043c9190612426565b611057565b005b60007f80ac58cd000000000000000000000000000000000000000000000000000000007bffffffffffffffffffffffffffffffffffffffffffffffffffffffff1916827bffffffffffffffffffffffffffffffffffffffffffffffffffffffff1916148061050e57507f5b5e139f000000000000000000000000000000000000000000000000000000007bffffffffffffffffffffffffffffffffffffffffffffffffffffffff1916827bffffffffffffffffffffffffffffffffffffffffffffffffffffffff1916145b8061051e575061051d82611140565b5b9050919050565b606060008054610534906128d3565b80601f0160208091040260200160405190810160405280929190818152602001828054610560906128d3565b80156105ad5780601f10610582576101008083540402835291602001916105ad565b820191906000526020600020905b81548152906001019060200180831161059057829003601f168201915b5050505050905090565b6105bf61222f565b600c6000838152602001908152602001600020604051806060016040529081600082015481526020016001820160009054906101000a900473ffffffffffffffffffffffffffffffffffffffff1673ffffffffffffffffffffffffffffffffffffffff1673ffffffffffffffffffffffffffffffffffffffff1681526020016002820154815250509050919050565b6000610659826111aa565b6004600083815260200190815260200160002060009054906101000a900473ffffffffffffffffffffffffffffffffffffffff169050919050565b600061069f82610a11565b90508073ffffffffffffffffffffffffffffffffffffffff168373ffffffffffffffffffffffffffffffffffffffff160361070f576040517f08c379a000000000000000000000000000000000000000000000000000000000815260040161070690612976565b60405180910390fd5b8073ffffffffffffffffffffffffffffffffffffffff1661072e6111f5565b73ffffffffffffffffffffffffffffffffffffffff16148061075d575061075c816107576111f5565b610f40565b5b61079c576040517f08c379a000000000000000000000000000000000000000000000000000000000815260040161079390612a08565b60405180910390fd5b6107a683836111fd565b505050565b6107bc6107b66111f5565b826112b6565b6107fb576040517f08c379a00000000000000000000000000000000000000000000000000000000081526004016107f290612a9a565b60405180910390fd5b61080683838361134b565b505050565b803373ffffffffffffffffffffffffffffffffffffffff1661082c82610a11565b73ffffffffffffffffffffffffffffffffffffffff1614610882576040517f08c379a000000000000000000000000000000000000000000000000000000000815260040161087990612b2c565b60405180910390fd5b61088d338484610995565b82600c600084815260200190815260200160002060010160006101000a81548173ffffffffffffffffffffffffffffffffffffffff021916908373ffffffffffffffffffffffffffffffffffffffff1602179055506001600b60008573ffffffffffffffffffffffffffffffffffffffff1673ffffffffffffffffffffffffffffffffffffffff16815260200190815260200160002060008282546109329190612b7b565b925050819055506001600b60003373ffffffffffffffffffffffffffffffffffffffff1673ffffffffffffffffffffffffffffffffffffffff16815260200190815260200160002060008282546109899190612bd1565b92505081905550505050565b6109b083838360405180602001604052806000815250610e76565b505050565b6109c66109c06111f5565b826112b6565b610a05576040517f08c379a00000000000000000000000000000000000000000000000000000000081526004016109fc90612a9a565b60405180910390fd5b610a0e81611644565b50565b600080610a1d83611650565b9050600073ffffffffffffffffffffffffffffffffffffffff168173ffffffffffffffffffffffffffffffffffffffff1603610a8e576040517f08c379a0000000000000000000000000000000000000000000000000000000008152600401610a8590612c51565b60405180910390fd5b80915050919050565b60008073ffffffffffffffffffffffffffffffffffffffff168273ffffffffffffffffffffffffffffffffffffffff1603610b07576040517f08c379a0000000000000000000000000000000000000000000000000000000008152600401610afe90612ce3565b60405180910390fd5b600360008373ffffffffffffffffffffffffffffffffffffffff1673ffffffffffffffffffffffffffffffffffffffff168152602001908152602001600020549050919050565b610b5661168d565b610b60600061170b565b565b6000600660009054906101000a900473ffffffffffffffffffffffffffffffffffffffff16905090565b606060018054610b9b906128d3565b80601f0160208091040260200160405190810160405280929190818152602001828054610bc7906128d3565b8015610c145780601f10610be957610100808354040283529160200191610c14565b820191906000526020600020905b815481529060010190602001808311610bf757829003601f168201915b5050505050905090565b6000600b60008373ffffffffffffffffffffffffffffffffffffffff1673ffffffffffffffffffffffffffffffffffffffff168152602001908152602001600020549050919050565b600760009054906101000a900473ffffffffffffffffffffffffffffffffffffffff1673ffffffffffffffffffffffffffffffffffffffff163373ffffffffffffffffffffffffffffffffffffffff1614610cf7576040517f08c379a0000000000000000000000000000000000000000000000000000000008152600401610cee90612d75565b60405180910390fd5b6000610d03600d6117d1565b9050610d0f600d6117df565b610d1983826117f5565b8060086000018190555082600860010160006101000a81548173ffffffffffffffffffffffffffffffffffffffff021916908373ffffffffffffffffffffffffffffffffffffffff160217905550816008600201819055506008600c6000838152602001908152602001600020600082015481600001556001820160009054906101000a900473ffffffffffffffffffffffffffffffffffffffff168160010160006101000a81548173ffffffffffffffffffffffffffffffffffffffff021916908373ffffffffffffffffffffffffffffffffffffffff160217905550600282015481600201559050506001600b60008573ffffffffffffffffffffffffffffffffffffffff1673ffffffffffffffffffffffffffffffffffffffff1681526020019081526020016000206000828254610e549190612b7b565b92505081905550505050565b610e72610e6b6111f5565b8383611813565b5050565b610e87610e816111f5565b836112b6565b610ec6576040517f08c379a0000000000000000000000000000000000000000000000000000000008152600401610ebd90612a9a565b60405180910390fd5b610ed28484848461197f565b50505050565b6060610ee3826111aa565b6000610eed6119db565b90506000815111610f0d5760405180602001604052806000815250610f38565b80610f17846119f2565b604051602001610f28929190612dd1565b6040516020818303038152906040525b915050919050565b6000600560008473ffffffffffffffffffffffffffffffffffffffff1673ffffffffffffffffffffffffffffffffffffffff16815260200190815260200160002060008373ffffffffffffffffffffffffffffffffffffffff1673ffffffffffffffffffffffffffffffffffffffff16815260200190815260200160002060009054906101000a900460ff16905092915050565b610fdc61168d565b600073ffffffffffffffffffffffffffffffffffffffff168173ffffffffffffffffffffffffffffffffffffffff160361104b576040517f08c379a000000000000000000000000000000000000000000000000000000000815260040161104290612e67565b60405180910390fd5b6110548161170b565b50565b803373ffffffffffffffffffffffffffffffffffffffff1661107882610a11565b73ffffffffffffffffffffffffffffffffffffffff16146110ce576040517f08c379a00000000000000000000000000000000000000000000000000000000081526004016110c590612b2c565b60405180910390fd5b60006110d983610a11565b90506001600b60008373ffffffffffffffffffffffffffffffffffffffff1673ffffffffffffffffffffffffffffffffffffffff168152602001908152602001600020600082825461112b9190612bd1565b9250508190555061113b83611644565b505050565b60007f01ffc9a7000000000000000000000000000000000000000000000000000000007bffffffffffffffffffffffffffffffffffffffffffffffffffffffff1916827bffffffffffffffffffffffffffffffffffffffffffffffffffffffff1916149050919050565b6111b381611b52565b6111f2576040517f08c379a00000000000000000000000000000000000000000000000000000000081526004016111e990612c51565b60405180910390fd5b50565b600033905090565b816004600083815260200190815260200160002060006101000a81548173ffffffffffffffffffffffffffffffffffffffff021916908373ffffffffffffffffffffffffffffffffffffffff160217905550808273ffffffffffffffffffffffffffffffffffffffff1661127083610a11565b73ffffffffffffffffffffffffffffffffffffffff167f8c5be1e5ebec7d5bd14f71427d1e84f3dd0314c0f7b2291e5b200ac8c7c3b92560405160405180910390a45050565b6000806112c283610a11565b90508073ffffffffffffffffffffffffffffffffffffffff168473ffffffffffffffffffffffffffffffffffffffff16148061130457506113038185610f40565b5b8061134257508373ffffffffffffffffffffffffffffffffffffffff1661132a8461064e565b73ffffffffffffffffffffffffffffffffffffffff16145b91505092915050565b8273ffffffffffffffffffffffffffffffffffffffff1661136b82610a11565b73ffffffffffffffffffffffffffffffffffffffff16146113c1576040517f08c379a00000000000000000000000000000000000000000000000000000000081526004016113b890612ef9565b60405180910390fd5b600073ffffffffffffffffffffffffffffffffffffffff168273ffffffffffffffffffffffffffffffffffffffff1603611430576040517f08c379a000000000000000000000000000000000000000000000000000000000815260040161142790612f8b565b60405180910390fd5b61143d8383836001611b93565b8273ffffffffffffffffffffffffffffffffffffffff1661145d82610a11565b73ffffffffffffffffffffffffffffffffffffffff16146114b3576040517f08c379a00000000000000000000000000000000000000000000000000000000081526004016114aa90612ef9565b60405180910390fd5b6004600082815260200190815260200160002060006101000a81549073ffffffffffffffffffffffffffffffffffffffff02191690556001600360008573ffffffffffffffffffffffffffffffffffffffff1673ffffffffffffffffffffffffffffffffffffffff168152602001908152602001600020600082825403925050819055506001600360008473ffffffffffffffffffffffffffffffffffffffff1673ffffffffffffffffffffffffffffffffffffffff16815260200190815260200160002060008282540192505081905550816002600083815260200190815260200160002060006101000a81548173ffffffffffffffffffffffffffffffffffffffff021916908373ffffffffffffffffffffffffffffffffffffffff160217905550808273ffffffffffffffffffffffffffffffffffffffff168473ffffffffffffffffffffffffffffffffffffffff167fddf252ad1be2c89b69c2b068fc378daa952ba7f163c4a11628f55a4df523b3ef60405160405180910390a461163f8383836001611cb9565b505050565b61164d81611cbf565b50565b60006002600083815260200190815260200160002060009054906101000a900473ffffffffffffffffffffffffffffffffffffffff169050919050565b6116956111f5565b73ffffffffffffffffffffffffffffffffffffffff166116b3610b62565b73ffffffffffffffffffffffffffffffffffffffff1614611709576040517f08c379a000000000000000000000000000000000000000000000000000000000815260040161170090612ff7565b60405180910390fd5b565b6000600660009054906101000a900473ffffffffffffffffffffffffffffffffffffffff16905081600660006101000a81548173ffffffffffffffffffffffffffffffffffffffff021916908373ffffffffffffffffffffffffffffffffffffffff1602179055508173ffffffffffffffffffffffffffffffffffffffff168173ffffffffffffffffffffffffffffffffffffffff167f8be0079c531659141344cd1fd0a4f28419497f9722a3daafe3b4186f6b6457e060405160405180910390a35050565b600081600001549050919050565b6001816000016000828254019250508190555050565b61180f828260405180602001604052806000815250611e0d565b5050565b8173ffffffffffffffffffffffffffffffffffffffff168373ffffffffffffffffffffffffffffffffffffffff1603611881576040517f08c379a000000000000000000000000000000000000000000000000000000000815260040161187890613063565b60405180910390fd5b80600560008573ffffffffffffffffffffffffffffffffffffffff1673ffffffffffffffffffffffffffffffffffffffff16815260200190815260200160002060008473ffffffffffffffffffffffffffffffffffffffff1673ffffffffffffffffffffffffffffffffffffffff16815260200190815260200160002060006101000a81548160ff0219169083151502179055508173ffffffffffffffffffffffffffffffffffffffff168373ffffffffffffffffffffffffffffffffffffffff167f17307eab39ab6107e8899845ad3d59bd9653f200f220920489ca2b5937696c3183604051611972919061231a565b60405180910390a3505050565b61198a84848461134b565b61199684848484611e68565b6119d5576040517f08c379a00000000000000000000000000000000000000000000000000000000081526004016119cc906130f5565b60405180910390fd5b50505050565b606060405180602001604052806000815250905090565b606060008203611a39576040518060400160405280600181526020017f30000000000000000000000000000000000000000000000000000000000000008152509050611b4d565b600082905060005b60008214611a6b578080611a5490613115565b915050600a82611a64919061318c565b9150611a41565b60008167ffffffffffffffff811115611a8757611a866126b6565b5b6040519080825280601f01601f191660200182016040528015611ab95781602001600182028036833780820191505090505b5090505b60008514611b4657600182611ad29190612bd1565b9150600a85611ae191906131bd565b6030611aed9190612b7b565b60f81b818381518110611b0357611b026131ee565b5b60200101907effffffffffffffffffffffffffffffffffffffffffffffffffffffffffffff1916908160001a905350600a85611b3f919061318c565b9450611abd565b8093505050505b919050565b60008073ffffffffffffffffffffffffffffffffffffffff16611b7483611650565b73ffffffffffffffffffffffffffffffffffffffff1614159050919050565b6001811115611cb357600073ffffffffffffffffffffffffffffffffffffffff168473ffffffffffffffffffffffffffffffffffffffff1614611c275780600360008673ffffffffffffffffffffffffffffffffffffffff1673ffffffffffffffffffffffffffffffffffffffff1681526020019081526020016000206000828254611c1f9190612bd1565b925050819055505b600073ffffffffffffffffffffffffffffffffffffffff168373ffffffffffffffffffffffffffffffffffffffff1614611cb25780600360008573ffffffffffffffffffffffffffffffffffffffff1673ffffffffffffffffffffffffffffffffffffffff1681526020019081526020016000206000828254611caa9190612b7b565b925050819055505b5b50505050565b50505050565b6000611cca82610a11565b9050611cda816000846001611b93565b611ce382610a11565b90506004600083815260200190815260200160002060006101000a81549073ffffffffffffffffffffffffffffffffffffffff02191690556001600360008373ffffffffffffffffffffffffffffffffffffffff1673ffffffffffffffffffffffffffffffffffffffff168152602001908152602001600020600082825403925050819055506002600083815260200190815260200160002060006101000a81549073ffffffffffffffffffffffffffffffffffffffff021916905581600073ffffffffffffffffffffffffffffffffffffffff168273ffffffffffffffffffffffffffffffffffffffff167fddf252ad1be2c89b69c2b068fc378daa952ba7f163c4a11628f55a4df523b3ef60405160405180910390a4611e09816000846001611cb9565b5050565b611e178383611fef565b611e246000848484611e68565b611e63576040517f08c379a0000000000000000000000000000000000000000000000000000000008152600401611e5a906130f5565b60405180910390fd5b505050565b6000611e898473ffffffffffffffffffffffffffffffffffffffff1661220c565b15611fe2578373ffffffffffffffffffffffffffffffffffffffff1663150b7a02611eb26111f5565b8786866040518563ffffffff1660e01b8152600401611ed49493929190613272565b6020604051808303816000875af1925050508015611f1057506040513d601f19601f82011682018060405250810190611f0d91906132d3565b60015b611f92573d8060008114611f40576040519150601f19603f3d011682016040523d82523d6000602084013e611f45565b606091505b506000815103611f8a576040517f08c379a0000000000000000000000000000000000000000000000000000000008152600401611f81906130f5565b60405180910390fd5b805181602001fd5b63150b7a0260e01b7bffffffffffffffffffffffffffffffffffffffffffffffffffffffff1916817bffffffffffffffffffffffffffffffffffffffffffffffffffffffff191614915050611fe7565b600190505b949350505050565b600073ffffffffffffffffffffffffffffffffffffffff168273ffffffffffffffffffffffffffffffffffffffff160361205e576040517f08c379a00000000000000000000000000000000000000000000000000000000081526004016120559061334c565b60405180910390fd5b61206781611b52565b156120a7576040517f08c379a000000000000000000000000000000000000000000000000000000000815260040161209e906133b8565b60405180910390fd5b6120b5600083836001611b93565b6120be81611b52565b156120fe576040517f08c379a00000000000000000000000000000000000000000000000000000000081526004016120f5906133b8565b60405180910390fd5b6001600360008473ffffffffffffffffffffffffffffffffffffffff1673ffffffffffffffffffffffffffffffffffffffff16815260200190815260200160002060008282540192505081905550816002600083815260200190815260200160002060006101000a81548173ffffffffffffffffffffffffffffffffffffffff021916908373ffffffffffffffffffffffffffffffffffffffff160217905550808273ffffffffffffffffffffffffffffffffffffffff16600073ffffffffffffffffffffffffffffffffffffffff167fddf252ad1be2c89b69c2b068fc378daa952ba7f163c4a11628f55a4df523b3ef60405160405180910390a4612208600083836001611cb9565b5050565b6000808273ffffffffffffffffffffffffffffffffffffffff163b119050919050565b604051806060016040528060008152602001600073ffffffffffffffffffffffffffffffffffffffff168152602001600081525090565b6000604051905090565b600080fd5b600080fd5b60007fffffffff0000000000000000000000000000000000000000000000000000000082169050919050565b6122af8161227a565b81146122ba57600080fd5b50565b6000813590506122cc816122a6565b92915050565b6000602082840312156122e8576122e7612270565b5b60006122f6848285016122bd565b91505092915050565b60008115159050919050565b612314816122ff565b82525050565b600060208201905061232f600083018461230b565b92915050565b600081519050919050565b600082825260208201905092915050565b60005b8381101561236f578082015181840152602081019050612354565b8381111561237e576000848401525b50505050565b6000601f19601f8301169050919050565b60006123a082612335565b6123aa8185612340565b93506123ba818560208601612351565b6123c381612384565b840191505092915050565b600060208201905081810360008301526123e88184612395565b905092915050565b6000819050919050565b612403816123f0565b811461240e57600080fd5b50565b600081359050612420816123fa565b92915050565b60006020828403121561243c5761243b612270565b5b600061244a84828501612411565b91505092915050565b61245c816123f0565b82525050565b600073ffffffffffffffffffffffffffffffffffffffff82169050919050565b600061248d82612462565b9050919050565b61249d81612482565b82525050565b6060820160008201516124b96000850182612453565b5060208201516124cc6020850182612494565b5060408201516124df6040850182612453565b50505050565b60006060820190506124fa60008301846124a3565b92915050565b61250981612482565b82525050565b60006020820190506125246000830184612500565b92915050565b61253381612482565b811461253e57600080fd5b50565b6000813590506125508161252a565b92915050565b6000806040838503121561256d5761256c612270565b5b600061257b85828601612541565b925050602061258c85828601612411565b9150509250929050565b6000806000606084860312156125af576125ae612270565b5b60006125bd86828701612541565b93505060206125ce86828701612541565b92505060406125df86828701612411565b9150509250925092565b6000602082840312156125ff576125fe612270565b5b600061260d84828501612541565b91505092915050565b61261f816123f0565b82525050565b600060208201905061263a6000830184612616565b92915050565b612649816122ff565b811461265457600080fd5b50565b60008135905061266681612640565b92915050565b6000806040838503121561268357612682612270565b5b600061269185828601612541565b92505060206126a285828601612657565b9150509250929050565b600080fd5b600080fd5b7f4e487b7100000000000000000000000000000000000000000000000000000000600052604160045260246000fd5b6126ee82612384565b810181811067ffffffffffffffff8211171561270d5761270c6126b6565b5b80604052505050565b6000612720612266565b905061272c82826126e5565b919050565b600067ffffffffffffffff82111561274c5761274b6126b6565b5b61275582612384565b9050602081019050919050565b82818337600083830152505050565b600061278461277f84612731565b612716565b9050828152602081018484840111156127a05761279f6126b1565b5b6127ab848285612762565b509392505050565b600082601f8301126127c8576127c76126ac565b5b81356127d8848260208601612771565b91505092915050565b600080600080608085870312156127fb576127fa612270565b5b600061280987828801612541565b945050602061281a87828801612541565b935050604061282b87828801612411565b925050606085013567ffffffffffffffff81111561284c5761284b612275565b5b612858878288016127b3565b91505092959194509250565b6000806040838503121561287b5761287a612270565b5b600061288985828601612541565b925050602061289a85828601612541565b9150509250929050565b7f4e487b7100000000000000000000000000000000000000000000000000000000600052602260045260246000fd5b600060028204905060018216806128eb57607f821691505b6020821081036128fe576128fd6128a4565b5b50919050565b7f4552433732313a20617070726f76616c20746f2063757272656e74206f776e6560008201527f7200000000000000000000000000000000000000000000000000000000000000602082015250565b6000612960602183612340565b915061296b82612904565b604082019050919050565b6000602082019050818103600083015261298f81612953565b9050919050565b7f4552433732313a20617070726f76652063616c6c6572206973206e6f7420746f60008201527f6b656e206f776e6572206f7220617070726f76656420666f7220616c6c000000602082015250565b60006129f2603d83612340565b91506129fd82612996565b604082019050919050565b60006020820190508181036000830152612a21816129e5565b9050919050565b7f4552433732313a2063616c6c6572206973206e6f7420746f6b656e206f776e6560008201527f72206f7220617070726f76656400000000000000000000000000000000000000602082015250565b6000612a84602d83612340565b9150612a8f82612a28565b604082019050919050565b60006020820190508181036000830152612ab381612a77565b9050919050565b7f4572726f72203a20756e617574686f72697a6564206163636f756e742061646460008201527f726573732e000000000000000000000000000000000000000000000000000000602082015250565b6000612b16602583612340565b9150612b2182612aba565b604082019050919050565b60006020820190508181036000830152612b4581612b09565b9050919050565b7f4e487b7100000000000000000000000000000000000000000000000000000000600052601160045260246000fd5b6000612b86826123f0565b9150612b91836123f0565b9250827fffffffffffffffffffffffffffffffffffffffffffffffffffffffffffffffff03821115612bc657612bc5612b4c565b5b828201905092915050565b6000612bdc826123f0565b9150612be7836123f0565b925082821015612bfa57612bf9612b4c565b5b828203905092915050565b7f4552433732313a20696e76616c696420746f6b656e2049440000000000000000600082015250565b6000612c3b601883612340565b9150612c4682612c05565b602082019050919050565b60006020820190508181036000830152612c6a81612c2e565b9050919050565b7f4552433732313a2061646472657373207a65726f206973206e6f74206120766160008201527f6c6964206f776e65720000000000000000000000000000000000000000000000602082015250565b6000612ccd602983612340565b9150612cd882612c71565b604082019050919050565b60006020820190508181036000830152612cfc81612cc0565b9050919050565b7f4572726f72203a20756e617574686f72697a65642061646d696e206163636f7560008201527f6e7420616464726573732e000000000000000000000000000000000000000000602082015250565b6000612d5f602b83612340565b9150612d6a82612d03565b604082019050919050565b60006020820190508181036000830152612d8e81612d52565b9050919050565b600081905092915050565b6000612dab82612335565b612db58185612d95565b9350612dc5818560208601612351565b80840191505092915050565b6000612ddd8285612da0565b9150612de98284612da0565b91508190509392505050565b7f4f776e61626c653a206e6577206f776e657220697320746865207a65726f206160008201527f6464726573730000000000000000000000000000000000000000000000000000602082015250565b6000612e51602683612340565b9150612e5c82612df5565b604082019050919050565b60006020820190508181036000830152612e8081612e44565b9050919050565b7f4552433732313a207472616e736665722066726f6d20696e636f72726563742060008201527f6f776e6572000000000000000000000000000000000000000000000000000000602082015250565b6000612ee3602583612340565b9150612eee82612e87565b604082019050919050565b60006020820190508181036000830152612f1281612ed6565b9050919050565b7f4552433732313a207472616e7366657220746f20746865207a65726f2061646460008201527f7265737300000000000000000000000000000000000000000000000000000000602082015250565b6000612f75602483612340565b9150612f8082612f19565b604082019050919050565b60006020820190508181036000830152612fa481612f68565b9050919050565b7f4f776e61626c653a2063616c6c6572206973206e6f7420746865206f776e6572600082015250565b6000612fe1602083612340565b9150612fec82612fab565b602082019050919050565b6000602082019050818103600083015261301081612fd4565b9050919050565b7f4552433732313a20617070726f766520746f2063616c6c657200000000000000600082015250565b600061304d601983612340565b915061305882613017565b602082019050919050565b6000602082019050818103600083015261307c81613040565b9050919050565b7f4552433732313a207472616e7366657220746f206e6f6e20455243373231526560008201527f63656976657220696d706c656d656e7465720000000000000000000000000000602082015250565b60006130df603283612340565b91506130ea82613083565b604082019050919050565b6000602082019050818103600083015261310e816130d2565b9050919050565b6000613120826123f0565b91507fffffffffffffffffffffffffffffffffffffffffffffffffffffffffffffffff820361315257613151612b4c565b5b600182019050919050565b7f4e487b7100000000000000000000000000000000000000000000000000000000600052601260045260246000fd5b6000613197826123f0565b91506131a2836123f0565b9250826131b2576131b161315d565b5b828204905092915050565b60006131c8826123f0565b91506131d3836123f0565b9250826131e3576131e261315d565b5b828206905092915050565b7f4e487b7100000000000000000000000000000000000000000000000000000000600052603260045260246000fd5b600081519050919050565b600082825260208201905092915050565b60006132448261321d565b61324e8185613228565b935061325e818560208601612351565b61326781612384565b840191505092915050565b60006080820190506132876000830187612500565b6132946020830186612500565b6132a16040830185612616565b81810360608301526132b38184613239565b905095945050505050565b6000815190506132cd816122a6565b92915050565b6000602082840312156132e9576132e8612270565b5b60006132f7848285016132be565b91505092915050565b7f4552433732313a206d696e7420746f20746865207a65726f2061646472657373600082015250565b6000613336602083612340565b915061334182613300565b602082019050919050565b6000602082019050818103600083015261336581613329565b9050919050565b7f4552433732313a20746f6b656e20616c7265616479206d696e74656400000000600082015250565b60006133a2601c83612340565b91506133ad8261336c565b602082019050919050565b600060208201905081810360008301526133d181613395565b905091905056fea264697066735822122093bd294c728328d931860dd93859e70aafe078fddb04ed2a3ab0e62df6f5d22964736f6c634300080e0033",
  "immutableReferences": {},
  "source": "// SPDX-License-Identifier: MIT\npragma solidity >=0.4.22 <0.9.0;\n\nimport \"./ERC721.sol\";\nimport \"./ERC721Burnable.sol\";\nimport \"./Ownable.sol\";\nimport \"./Counters.sol\";\n\ncontract LandNFT is ERC721, ERC721Burnable, Ownable {\n    using Counters for Counters.Counter;\n    address private admin;\n\n    struct landNFT {\n        uint256 id;\n        address owner;\n        uint256 mongoId;\n    }\n    landNFT landnft;\n\n    mapping(address => uint256) private ownership;\n    mapping(uint256 => landNFT) private propDetails;\n\n    Counters.Counter private _tokenIdCounter;\n\n    constructor() ERC721(\"LandNFT\", \"LNFT\") {\n        admin = msg.sender;\n    }\n\n    modifier tokenOwner(uint256 _tokenId) {\n        require(ownerOf(_tokenId) == msg.sender, \"Error : unauthorized account address.\");\n        _;\n    }\n\n    modifier onlyAdmin () {\n        require(msg.sender == admin, \"Error : unauthorized admin account address.\");\n        _;\n    }\n\n    //create new NFT for selected land at buyers address directly only by admin account\n    function safeMint(address to, uint256 _id) external onlyAdmin {\n        uint256 tokenId = _tokenIdCounter.current();\n        _tokenIdCounter.increment();\n        _safeMint(to, tokenId);\n        landnft.id = tokenId;\n        landnft.owner = to;\n        landnft.mongoId = _id;\n        propDetails[tokenId] = landnft;\n        ownership[to] += 1;\n    }\n\n    //get details of land with token _id\n    function landDetails (uint256 _id) external view returns (landNFT memory) {\n        return propDetails[_id];\n    }\n\n    //get balance details of user\n    function balOf (address _addr) external view returns (uint256) {\n        return ownership[_addr];\n    }\n\n    // The following functions are overrides required by Solidity.\n    function _burn(uint256 _tokenId) internal override (ERC721) {\n        super._burn(_tokenId);\n    }\n\n    //burn land nft\n    function deleteNFT (uint256 _tokenId) external tokenOwner(_tokenId) {\n        address owner = ownerOf(_tokenId);\n        ownership[owner] -= 1;\n        _burn(_tokenId);\n    }\n\n    //transfer ownership of land NFT\n    function safeTransfer (address to, uint256 _tokenId) external tokenOwner(_tokenId){\n        safeTransferFrom(msg.sender, to, _tokenId);\n        propDetails[_tokenId].owner = to;\n        ownership[to] += 1;\n        ownership[msg.sender] -= 1;\n    }\n}",
  "sourcePath": "/home/vikaskaushik/Desktop/cryptogold/land-contract/contracts/landNFT.sol",
  "compiler": {
    "name": "solc",
    "version": "0.8.14+commit.80d49f37.Emscripten.clang"
  },
  "schemaVersion": "3.4.7",
  "updatedAt": "2023-04-24T15:20:25.598Z",
  "devdoc": {
    "kind": "dev",
    "methods": {
      "approve(address,uint256)": {
        "details": "See {IERC721-approve}."
      },
      "balanceOf(address)": {
        "details": "See {IERC721-balanceOf}."
      },
      "burn(uint256)": {
        "details": "Burns `tokenId`. See {ERC721-_burn}. Requirements: - The caller must own `tokenId` or be an approved operator."
      },
      "getApproved(uint256)": {
        "details": "See {IERC721-getApproved}."
      },
      "isApprovedForAll(address,address)": {
        "details": "See {IERC721-isApprovedForAll}."
      },
      "name()": {
        "details": "See {IERC721Metadata-name}."
      },
      "owner()": {
        "details": "Returns the address of the current owner."
      },
      "ownerOf(uint256)": {
        "details": "See {IERC721-ownerOf}."
      },
      "renounceOwnership()": {
        "details": "Leaves the contract without owner. It will not be possible to call `onlyOwner` functions anymore. Can only be called by the current owner. NOTE: Renouncing ownership will leave the contract without an owner, thereby removing any functionality that is only available to the owner."
      },
      "safeTransferFrom(address,address,uint256)": {
        "details": "See {IERC721-safeTransferFrom}."
      },
      "safeTransferFrom(address,address,uint256,bytes)": {
        "details": "See {IERC721-safeTransferFrom}."
      },
      "setApprovalForAll(address,bool)": {
        "details": "See {IERC721-setApprovalForAll}."
      },
      "supportsInterface(bytes4)": {
        "details": "See {IERC165-supportsInterface}."
      },
      "symbol()": {
        "details": "See {IERC721Metadata-symbol}."
      },
      "tokenURI(uint256)": {
        "details": "See {IERC721Metadata-tokenURI}."
      },
      "transferFrom(address,address,uint256)": {
        "details": "See {IERC721-transferFrom}."
      },
      "transferOwnership(address)": {
        "details": "Transfers ownership of the contract to a new account (`newOwner`). Can only be called by the current owner."
      }
    },
    "version": 1
  },
  "userdoc": {
    "kind": "user",
    "methods": {},
    "version": 1
  }
}